{
  "contractName": "Couple",
  "abi": [
    {
      "inputs": [],
      "stateMutability": "nonpayable",
      "type": "constructor"
    },
    {
      "inputs": [],
      "name": "ApprovalCallerNotOwnerNorApproved",
      "type": "error"
    },
    {
      "inputs": [],
      "name": "ApprovalQueryForNonexistentToken",
      "type": "error"
    },
    {
      "inputs": [],
      "name": "ApprovalToCurrentOwner",
      "type": "error"
    },
    {
      "inputs": [],
      "name": "ApproveToCaller",
      "type": "error"
    },
    {
      "inputs": [],
      "name": "BalanceQueryForZeroAddress",
      "type": "error"
    },
    {
      "inputs": [],
      "name": "MintToZeroAddress",
      "type": "error"
    },
    {
      "inputs": [],
      "name": "MintZeroQuantity",
      "type": "error"
    },
    {
      "inputs": [],
      "name": "OwnerQueryForNonexistentToken",
      "type": "error"
    },
    {
      "inputs": [],
      "name": "TransferCallerNotOwnerNorApproved",
      "type": "error"
    },
    {
      "inputs": [],
      "name": "TransferFromIncorrectOwner",
      "type": "error"
    },
    {
      "inputs": [],
      "name": "TransferToNonERC721ReceiverImplementer",
      "type": "error"
    },
    {
      "inputs": [],
      "name": "TransferToZeroAddress",
      "type": "error"
    },
    {
      "inputs": [],
      "name": "URIQueryForNonexistentToken",
      "type": "error"
    },
    {
      "anonymous": false,
      "inputs": [
        {
          "indexed": true,
          "internalType": "address",
          "name": "owner",
          "type": "address"
        },
        {
          "indexed": true,
          "internalType": "address",
          "name": "approved",
          "type": "address"
        },
        {
          "indexed": true,
          "internalType": "uint256",
          "name": "tokenId",
          "type": "uint256"
        }
      ],
      "name": "Approval",
      "type": "event"
    },
    {
      "anonymous": false,
      "inputs": [
        {
          "indexed": true,
          "internalType": "address",
          "name": "owner",
          "type": "address"
        },
        {
          "indexed": true,
          "internalType": "address",
          "name": "operator",
          "type": "address"
        },
        {
          "indexed": false,
          "internalType": "bool",
          "name": "approved",
          "type": "bool"
        }
      ],
      "name": "ApprovalForAll",
      "type": "event"
    },
    {
      "anonymous": false,
      "inputs": [
        {
          "indexed": true,
          "internalType": "address",
          "name": "previousOwner",
          "type": "address"
        },
        {
          "indexed": true,
          "internalType": "address",
          "name": "newOwner",
          "type": "address"
        }
      ],
      "name": "OwnershipTransferred",
      "type": "event"
    },
    {
      "anonymous": false,
      "inputs": [
        {
          "indexed": true,
          "internalType": "address",
          "name": "from",
          "type": "address"
        },
        {
          "indexed": true,
          "internalType": "address",
          "name": "to",
          "type": "address"
        },
        {
          "indexed": true,
          "internalType": "uint256",
          "name": "tokenId",
          "type": "uint256"
        }
      ],
      "name": "Transfer",
      "type": "event"
    },
    {
      "inputs": [
        {
          "internalType": "address",
          "name": "to",
          "type": "address"
        },
        {
          "internalType": "uint256",
          "name": "tokenId",
          "type": "uint256"
        }
      ],
      "name": "approve",
      "outputs": [],
      "stateMutability": "nonpayable",
      "type": "function"
    },
    {
      "inputs": [
        {
          "internalType": "address",
          "name": "owner",
          "type": "address"
        }
      ],
      "name": "balanceOf",
      "outputs": [
        {
          "internalType": "uint256",
          "name": "",
          "type": "uint256"
        }
      ],
      "stateMutability": "view",
      "type": "function",
      "constant": true
    },
    {
      "inputs": [
        {
          "internalType": "uint256",
          "name": "tokenId",
          "type": "uint256"
        }
      ],
      "name": "getApproved",
      "outputs": [
        {
          "internalType": "address",
          "name": "",
          "type": "address"
        }
      ],
      "stateMutability": "view",
      "type": "function",
      "constant": true
    },
    {
      "inputs": [
        {
          "internalType": "address",
          "name": "owner",
          "type": "address"
        },
        {
          "internalType": "address",
          "name": "operator",
          "type": "address"
        }
      ],
      "name": "isApprovedForAll",
      "outputs": [
        {
          "internalType": "bool",
          "name": "",
          "type": "bool"
        }
      ],
      "stateMutability": "view",
      "type": "function",
      "constant": true
    },
    {
      "inputs": [
        {
          "internalType": "address",
          "name": "",
          "type": "address"
        }
      ],
      "name": "lifetime",
      "outputs": [
        {
          "internalType": "bool",
          "name": "",
          "type": "bool"
        }
      ],
      "stateMutability": "view",
      "type": "function",
      "constant": true
    },
    {
      "inputs": [],
      "name": "name",
      "outputs": [
        {
          "internalType": "string",
          "name": "",
          "type": "string"
        }
      ],
      "stateMutability": "view",
      "type": "function",
      "constant": true
    },
    {
      "inputs": [],
      "name": "owner",
      "outputs": [
        {
          "internalType": "address",
          "name": "",
          "type": "address"
        }
      ],
      "stateMutability": "view",
      "type": "function",
      "constant": true
    },
    {
      "inputs": [
        {
          "internalType": "uint256",
          "name": "tokenId",
          "type": "uint256"
        }
      ],
      "name": "ownerOf",
      "outputs": [
        {
          "internalType": "address",
          "name": "",
          "type": "address"
        }
      ],
      "stateMutability": "view",
      "type": "function",
      "constant": true
    },
    {
      "inputs": [
        {
          "internalType": "uint256",
          "name": "",
          "type": "uint256"
        }
      ],
      "name": "priceDict",
      "outputs": [
        {
          "internalType": "uint256",
          "name": "",
          "type": "uint256"
        }
      ],
      "stateMutability": "view",
      "type": "function",
      "constant": true
    },
    {
      "inputs": [],
      "name": "renounceOwnership",
      "outputs": [],
      "stateMutability": "nonpayable",
      "type": "function"
    },
    {
      "inputs": [
        {
          "internalType": "address",
          "name": "from",
          "type": "address"
        },
        {
          "internalType": "address",
          "name": "to",
          "type": "address"
        },
        {
          "internalType": "uint256",
          "name": "tokenId",
          "type": "uint256"
        }
      ],
      "name": "safeTransferFrom",
      "outputs": [],
      "stateMutability": "nonpayable",
      "type": "function"
    },
    {
      "inputs": [
        {
          "internalType": "address",
          "name": "from",
          "type": "address"
        },
        {
          "internalType": "address",
          "name": "to",
          "type": "address"
        },
        {
          "internalType": "uint256",
          "name": "tokenId",
          "type": "uint256"
        },
        {
          "internalType": "bytes",
          "name": "_data",
          "type": "bytes"
        }
      ],
      "name": "safeTransferFrom",
      "outputs": [],
      "stateMutability": "nonpayable",
      "type": "function"
    },
    {
      "inputs": [
        {
          "internalType": "address",
          "name": "operator",
          "type": "address"
        },
        {
          "internalType": "bool",
          "name": "approved",
          "type": "bool"
        }
      ],
      "name": "setApprovalForAll",
      "outputs": [],
      "stateMutability": "nonpayable",
      "type": "function"
    },
    {
      "inputs": [
        {
          "internalType": "bytes4",
          "name": "interfaceId",
          "type": "bytes4"
        }
      ],
      "name": "supportsInterface",
      "outputs": [
        {
          "internalType": "bool",
          "name": "",
          "type": "bool"
        }
      ],
      "stateMutability": "view",
      "type": "function",
      "constant": true
    },
    {
      "inputs": [],
      "name": "symbol",
      "outputs": [
        {
          "internalType": "string",
          "name": "",
          "type": "string"
        }
      ],
      "stateMutability": "view",
      "type": "function",
      "constant": true
    },
    {
      "inputs": [
        {
          "internalType": "uint256",
          "name": "tokenId",
          "type": "uint256"
        }
      ],
      "name": "tokenURI",
      "outputs": [
        {
          "internalType": "string",
          "name": "",
          "type": "string"
        }
      ],
      "stateMutability": "view",
      "type": "function",
      "constant": true
    },
    {
      "inputs": [],
      "name": "totalSupply",
      "outputs": [
        {
          "internalType": "uint256",
          "name": "",
          "type": "uint256"
        }
      ],
      "stateMutability": "view",
      "type": "function",
      "constant": true
    },
    {
      "inputs": [
        {
          "internalType": "address",
          "name": "from",
          "type": "address"
        },
        {
          "internalType": "address",
          "name": "to",
          "type": "address"
        },
        {
          "internalType": "uint256",
          "name": "tokenId",
          "type": "uint256"
        }
      ],
      "name": "transferFrom",
      "outputs": [],
      "stateMutability": "nonpayable",
      "type": "function"
    },
    {
      "inputs": [
        {
          "internalType": "address",
          "name": "newOwner",
          "type": "address"
        }
      ],
      "name": "transferOwnership",
      "outputs": [],
      "stateMutability": "nonpayable",
      "type": "function"
    },
    {
      "inputs": [
        {
          "internalType": "uint256",
          "name": "_type",
          "type": "uint256"
        },
        {
          "internalType": "uint256",
          "name": "_price",
          "type": "uint256"
        }
      ],
      "name": "setPrice",
      "outputs": [],
      "stateMutability": "nonpayable",
      "type": "function"
    },
    {
      "inputs": [
        {
          "internalType": "uint256",
          "name": "amount",
          "type": "uint256"
        }
      ],
      "name": "deposit",
      "outputs": [],
      "stateMutability": "payable",
      "type": "function",
      "payable": true
    },
    {
      "inputs": [
        {
          "internalType": "uint256",
          "name": "_type",
          "type": "uint256"
        }
      ],
      "name": "mint",
      "outputs": [],
      "stateMutability": "payable",
      "type": "function",
      "payable": true
    },
    {
      "inputs": [
        {
          "internalType": "address payable",
          "name": "_to",
          "type": "address"
        },
        {
          "internalType": "uint256",
          "name": "amount",
          "type": "uint256"
        }
      ],
      "name": "withdraw",
      "outputs": [],
      "stateMutability": "nonpayable",
      "type": "function"
    }
  ],
  "bytecode": "0x60806040523480156200001157600080fd5b506040518060400160405280600681526020017f436f75706c6500000000000000000000000000000000000000000000000000008152506040518060400160405280600281526020017f4350000000000000000000000000000000000000000000000000000000000000815250816002908051906020019062000096929190620001c1565b508060039080519060200190620000af929190620001c1565b50620000c0620000ee60201b60201c565b6000819055505050620000e8620000dc620000f360201b60201c565b620000fb60201b60201c565b620002d6565b600090565b600033905090565b6000600860009054906101000a900473ffffffffffffffffffffffffffffffffffffffff16905081600860006101000a81548173ffffffffffffffffffffffffffffffffffffffff021916908373ffffffffffffffffffffffffffffffffffffffff1602179055508173ffffffffffffffffffffffffffffffffffffffff168173ffffffffffffffffffffffffffffffffffffffff167f8be0079c531659141344cd1fd0a4f28419497f9722a3daafe3b4186f6b6457e060405160405180910390a35050565b828054620001cf90620002a0565b90600052602060002090601f016020900481019282620001f357600085556200023f565b82601f106200020e57805160ff19168380011785556200023f565b828001600101855582156200023f579182015b828111156200023e57825182559160200191906001019062000221565b5b5090506200024e919062000252565b5090565b5b808211156200026d57600081600090555060010162000253565b5090565b7f4e487b7100000000000000000000000000000000000000000000000000000000600052602260045260246000fd5b60006002820490506001821680620002b957607f821691505b60208210811415620002d057620002cf62000271565b5b50919050565b612f7b80620002e66000396000f3fe6080604052600436106101405760003560e01c80638da5cb5b116100b6578063c87b56dd1161006f578063c87b56dd1461043e578063e66acad91461047b578063e985e9c5146104b8578063f2fde38b146104f5578063f3fef3a31461051e578063f7d975771461054757610140565b80638da5cb5b1461035e57806395d89b4114610389578063a0712d68146103b4578063a22cb465146103d0578063b6b55f25146103f9578063b88d4fde1461041557610140565b806318160ddd1161010857806318160ddd1461025057806323b872dd1461027b57806342842e0e146102a45780636352211e146102cd57806370a082311461030a578063715018a61461034757610140565b806301ffc9a71461014557806306fdde0314610182578063081812fc146101ad578063095ea7b3146101ea5780631768b1d214610213575b600080fd5b34801561015157600080fd5b5061016c60048036038101906101679190612342565b610570565b604051610179919061238a565b60405180910390f35b34801561018e57600080fd5b50610197610652565b6040516101a4919061243e565b60405180910390f35b3480156101b957600080fd5b506101d460048036038101906101cf9190612496565b6106e4565b6040516101e19190612504565b60405180910390f35b3480156101f657600080fd5b50610211600480360381019061020c919061254b565b610760565b005b34801561021f57600080fd5b5061023a60048036038101906102359190612496565b61086b565b604051610247919061259a565b60405180910390f35b34801561025c57600080fd5b50610265610883565b604051610272919061259a565b60405180910390f35b34801561028757600080fd5b506102a2600480360381019061029d91906125b5565b61089a565b005b3480156102b057600080fd5b506102cb60048036038101906102c691906125b5565b6108aa565b005b3480156102d957600080fd5b506102f460048036038101906102ef9190612496565b6108ca565b6040516103019190612504565b60405180910390f35b34801561031657600080fd5b50610331600480360381019061032c9190612608565b6108e0565b60405161033e919061259a565b60405180910390f35b34801561035357600080fd5b5061035c6109b0565b005b34801561036a57600080fd5b50610373610a38565b6040516103809190612504565b60405180910390f35b34801561039557600080fd5b5061039e610a62565b6040516103ab919061243e565b60405180910390f35b6103ce60048036038101906103c99190612496565b610af4565b005b3480156103dc57600080fd5b506103f760048036038101906103f29190612661565b610c08565b005b610413600480360381019061040e9190612496565b610d80565b005b34801561042157600080fd5b5061043c600480360381019061043791906127d6565b610d8f565b005b34801561044a57600080fd5b5061046560048036038101906104609190612496565b610e0b565b604051610472919061243e565b60405180910390f35b34801561048757600080fd5b506104a2600480360381019061049d9190612608565b610eaa565b6040516104af919061238a565b60405180910390f35b3480156104c457600080fd5b506104df60048036038101906104da9190612859565b610eca565b6040516104ec919061238a565b60405180910390f35b34801561050157600080fd5b5061051c60048036038101906105179190612608565b610f5e565b005b34801561052a57600080fd5b50610545600480360381019061054091906128d7565b611056565b005b34801561055357600080fd5b5061056e60048036038101906105699190612917565b611183565b005b60007f80ac58cd000000000000000000000000000000000000000000000000000000007bffffffffffffffffffffffffffffffffffffffffffffffffffffffff1916827bffffffffffffffffffffffffffffffffffffffffffffffffffffffff1916148061063b57507f5b5e139f000000000000000000000000000000000000000000000000000000007bffffffffffffffffffffffffffffffffffffffffffffffffffffffff1916827bffffffffffffffffffffffffffffffffffffffffffffffffffffffff1916145b8061064b575061064a8261121b565b5b9050919050565b60606002805461066190612986565b80601f016020809104026020016040519081016040528092919081815260200182805461068d90612986565b80156106da5780601f106106af576101008083540402835291602001916106da565b820191906000526020600020905b8154815290600101906020018083116106bd57829003601f168201915b5050505050905090565b60006106ef82611285565b610725576040517fcf4700e400000000000000000000000000000000000000000000000000000000815260040160405180910390fd5b6006600083815260200190815260200160002060009054906101000a900473ffffffffffffffffffffffffffffffffffffffff169050919050565b600061076b826108ca565b90508073ffffffffffffffffffffffffffffffffffffffff168373ffffffffffffffffffffffffffffffffffffffff1614156107d3576040517f943f7b8c00000000000000000000000000000000000000000000000000000000815260040160405180910390fd5b8073ffffffffffffffffffffffffffffffffffffffff166107f26112d3565b73ffffffffffffffffffffffffffffffffffffffff161415801561082457506108228161081d6112d3565b610eca565b155b1561085b576040517fcfb3b94200000000000000000000000000000000000000000000000000000000815260040160405180910390fd5b6108668383836112db565b505050565b600a6020528060005260406000206000915090505481565b600061088d61138d565b6001546000540303905090565b6108a5838383611392565b505050565b6108c583838360405180602001604052806000815250610d8f565b505050565b60006108d582611848565b600001519050919050565b60008073ffffffffffffffffffffffffffffffffffffffff168273ffffffffffffffffffffffffffffffffffffffff161415610948576040517f8f4eb60400000000000000000000000000000000000000000000000000000000815260040160405180910390fd5b600560008373ffffffffffffffffffffffffffffffffffffffff1673ffffffffffffffffffffffffffffffffffffffff16815260200190815260200160002060000160009054906101000a900467ffffffffffffffff1667ffffffffffffffff169050919050565b6109b86112d3565b73ffffffffffffffffffffffffffffffffffffffff166109d6610a38565b73ffffffffffffffffffffffffffffffffffffffff1614610a2c576040517f08c379a0000000000000000000000000000000000000000000000000000000008152600401610a2390612a04565b60405180910390fd5b610a366000611ad7565b565b6000600860009054906101000a900473ffffffffffffffffffffffffffffffffffffffff16905090565b606060038054610a7190612986565b80601f0160208091040260200160405190810160405280929190818152602001828054610a9d90612986565b8015610aea5780601f10610abf57610100808354040283529160200191610aea565b820191906000526020600020905b815481529060010190602001808311610acd57829003601f168201915b5050505050905090565b60001515600960003373ffffffffffffffffffffffffffffffffffffffff1673ffffffffffffffffffffffffffffffffffffffff16815260200190815260200160002060009054906101000a900460ff16151514610b87576040517f08c379a0000000000000000000000000000000000000000000000000000000008152600401610b7e90612a70565b60405180910390fd5b6000600a6000838152602001908152602001600020541415610bde576040517f08c379a0000000000000000000000000000000000000000000000000000000008152600401610bd590612adc565b60405180910390fd5b610bfa600a600083815260200190815260200160002054610d80565b610c05336002611b9d565b50565b610c106112d3565b73ffffffffffffffffffffffffffffffffffffffff168273ffffffffffffffffffffffffffffffffffffffff161415610c75576040517fb06307db00000000000000000000000000000000000000000000000000000000815260040160405180910390fd5b8060076000610c826112d3565b73ffffffffffffffffffffffffffffffffffffffff1673ffffffffffffffffffffffffffffffffffffffff16815260200190815260200160002060008473ffffffffffffffffffffffffffffffffffffffff1673ffffffffffffffffffffffffffffffffffffffff16815260200190815260200160002060006101000a81548160ff0219169083151502179055508173ffffffffffffffffffffffffffffffffffffffff16610d2f6112d3565b73ffffffffffffffffffffffffffffffffffffffff167f17307eab39ab6107e8899845ad3d59bd9653f200f220920489ca2b5937696c3183604051610d74919061238a565b60405180910390a35050565b803414610d8c57600080fd5b50565b610d9a848484611392565b610db98373ffffffffffffffffffffffffffffffffffffffff16611bbb565b8015610dce5750610dcc84848484611bde565b155b15610e05576040517fd1a57ed600000000000000000000000000000000000000000000000000000000815260040160405180910390fd5b50505050565b6060610e1682611285565b610e4c576040517fa14c4b5000000000000000000000000000000000000000000000000000000000815260040160405180910390fd5b6000610e56611d2f565b9050600081511415610e775760405180602001604052806000815250610ea2565b80610e8184611d46565b604051602001610e92929190612b38565b6040516020818303038152906040525b915050919050565b60096020528060005260406000206000915054906101000a900460ff1681565b6000600760008473ffffffffffffffffffffffffffffffffffffffff1673ffffffffffffffffffffffffffffffffffffffff16815260200190815260200160002060008373ffffffffffffffffffffffffffffffffffffffff1673ffffffffffffffffffffffffffffffffffffffff16815260200190815260200160002060009054906101000a900460ff16905092915050565b610f666112d3565b73ffffffffffffffffffffffffffffffffffffffff16610f84610a38565b73ffffffffffffffffffffffffffffffffffffffff1614610fda576040517f08c379a0000000000000000000000000000000000000000000000000000000008152600401610fd190612a04565b60405180910390fd5b600073ffffffffffffffffffffffffffffffffffffffff168173ffffffffffffffffffffffffffffffffffffffff16141561104a576040517f08c379a000000000000000000000000000000000000000000000000000000000815260040161104190612bce565b60405180910390fd5b61105381611ad7565b50565b61105e6112d3565b73ffffffffffffffffffffffffffffffffffffffff1661107c610a38565b73ffffffffffffffffffffffffffffffffffffffff16146110d2576040517f08c379a00000000000000000000000000000000000000000000000000000000081526004016110c990612a04565b60405180910390fd5b60008273ffffffffffffffffffffffffffffffffffffffff16826040516110f890612c1f565b60006040518083038185875af1925050503d8060008114611135576040519150601f19603f3d011682016040523d82523d6000602084013e61113a565b606091505b505090508061117e576040517f08c379a000000000000000000000000000000000000000000000000000000000815260040161117590612c80565b60405180910390fd5b505050565b61118b6112d3565b73ffffffffffffffffffffffffffffffffffffffff166111a9610a38565b73ffffffffffffffffffffffffffffffffffffffff16146111ff576040517f08c379a00000000000000000000000000000000000000000000000000000000081526004016111f690612a04565b60405180910390fd5b80600a6000848152602001908152602001600020819055505050565b60007f01ffc9a7000000000000000000000000000000000000000000000000000000007bffffffffffffffffffffffffffffffffffffffffffffffffffffffff1916827bffffffffffffffffffffffffffffffffffffffffffffffffffffffff1916149050919050565b60008161129061138d565b1115801561129f575060005482105b80156112cc575060046000838152602001908152602001600020600001601c9054906101000a900460ff16155b9050919050565b600033905090565b826006600084815260200190815260200160002060006101000a81548173ffffffffffffffffffffffffffffffffffffffff021916908373ffffffffffffffffffffffffffffffffffffffff160217905550818373ffffffffffffffffffffffffffffffffffffffff168273ffffffffffffffffffffffffffffffffffffffff167f8c5be1e5ebec7d5bd14f71427d1e84f3dd0314c0f7b2291e5b200ac8c7c3b92560405160405180910390a4505050565b600090565b600061139d82611848565b90508373ffffffffffffffffffffffffffffffffffffffff16816000015173ffffffffffffffffffffffffffffffffffffffff1614611408576040517fa114810000000000000000000000000000000000000000000000000000000000815260040160405180910390fd5b60008473ffffffffffffffffffffffffffffffffffffffff166114296112d3565b73ffffffffffffffffffffffffffffffffffffffff1614806114585750611457856114526112d3565b610eca565b5b8061149d57506114666112d3565b73ffffffffffffffffffffffffffffffffffffffff16611485846106e4565b73ffffffffffffffffffffffffffffffffffffffff16145b9050806114d6576040517f59c896be00000000000000000000000000000000000000000000000000000000815260040160405180910390fd5b600073ffffffffffffffffffffffffffffffffffffffff168473ffffffffffffffffffffffffffffffffffffffff16141561153d576040517fea553b3400000000000000000000000000000000000000000000000000000000815260040160405180910390fd5b61154a8585856001611ea7565b611556600084876112db565b6001600560008773ffffffffffffffffffffffffffffffffffffffff1673ffffffffffffffffffffffffffffffffffffffff16815260200190815260200160002060000160008282829054906101000a900467ffffffffffffffff160392506101000a81548167ffffffffffffffff021916908367ffffffffffffffff1602179055506001600560008673ffffffffffffffffffffffffffffffffffffffff1673ffffffffffffffffffffffffffffffffffffffff16815260200190815260200160002060000160008282829054906101000a900467ffffffffffffffff160192506101000a81548167ffffffffffffffff021916908367ffffffffffffffff1602179055506000600460008581526020019081526020016000209050848160000160006101000a81548173ffffffffffffffffffffffffffffffffffffffff021916908373ffffffffffffffffffffffffffffffffffffffff160217905550428160000160146101000a81548167ffffffffffffffff021916908367ffffffffffffffff16021790555060006001850190506000600460008381526020019081526020016000209050600073ffffffffffffffffffffffffffffffffffffffff168160000160009054906101000a900473ffffffffffffffffffffffffffffffffffffffff1673ffffffffffffffffffffffffffffffffffffffff1614156117d65760005482146117d557878160000160006101000a81548173ffffffffffffffffffffffffffffffffffffffff021916908373ffffffffffffffffffffffffffffffffffffffff16021790555084602001518160000160146101000a81548167ffffffffffffffff021916908367ffffffffffffffff1602179055505b5b505050828473ffffffffffffffffffffffffffffffffffffffff168673ffffffffffffffffffffffffffffffffffffffff167fddf252ad1be2c89b69c2b068fc378daa952ba7f163c4a11628f55a4df523b3ef60405160405180910390a46118418585856001611ead565b5050505050565b611850612293565b60008290508061185e61138d565b1115801561186d575060005481105b15611aa0576000600460008381526020019081526020016000206040518060600160405290816000820160009054906101000a900473ffffffffffffffffffffffffffffffffffffffff1673ffffffffffffffffffffffffffffffffffffffff1673ffffffffffffffffffffffffffffffffffffffff1681526020016000820160149054906101000a900467ffffffffffffffff1667ffffffffffffffff1667ffffffffffffffff16815260200160008201601c9054906101000a900460ff16151515158152505090508060400151611a9e57600073ffffffffffffffffffffffffffffffffffffffff16816000015173ffffffffffffffffffffffffffffffffffffffff1614611982578092505050611ad2565b5b600115611a9d57818060019003925050600460008381526020019081526020016000206040518060600160405290816000820160009054906101000a900473ffffffffffffffffffffffffffffffffffffffff1673ffffffffffffffffffffffffffffffffffffffff1673ffffffffffffffffffffffffffffffffffffffff1681526020016000820160149054906101000a900467ffffffffffffffff1667ffffffffffffffff1667ffffffffffffffff16815260200160008201601c9054906101000a900460ff1615151515815250509050600073ffffffffffffffffffffffffffffffffffffffff16816000015173ffffffffffffffffffffffffffffffffffffffff1614611a98578092505050611ad2565b611983565b5b505b6040517fdf2d9b4200000000000000000000000000000000000000000000000000000000815260040160405180910390fd5b919050565b6000600860009054906101000a900473ffffffffffffffffffffffffffffffffffffffff16905081600860006101000a81548173ffffffffffffffffffffffffffffffffffffffff021916908373ffffffffffffffffffffffffffffffffffffffff1602179055508173ffffffffffffffffffffffffffffffffffffffff168173ffffffffffffffffffffffffffffffffffffffff167f8be0079c531659141344cd1fd0a4f28419497f9722a3daafe3b4186f6b6457e060405160405180910390a35050565b611bb7828260405180602001604052806000815250611eb3565b5050565b6000808273ffffffffffffffffffffffffffffffffffffffff163b119050919050565b60008373ffffffffffffffffffffffffffffffffffffffff1663150b7a02611c046112d3565b8786866040518563ffffffff1660e01b8152600401611c269493929190612cf5565b6020604051808303816000875af1925050508015611c6257506040513d601f19601f82011682018060405250810190611c5f9190612d56565b60015b611cdc573d8060008114611c92576040519150601f19603f3d011682016040523d82523d6000602084013e611c97565b606091505b50600081511415611cd4576040517fd1a57ed600000000000000000000000000000000000000000000000000000000815260040160405180910390fd5b805181602001fd5b63150b7a0260e01b7bffffffffffffffffffffffffffffffffffffffffffffffffffffffff1916817bffffffffffffffffffffffffffffffffffffffffffffffffffffffff191614915050949350505050565b606060405180602001604052806000815250905090565b60606000821415611d8e576040518060400160405280600181526020017f30000000000000000000000000000000000000000000000000000000000000008152509050611ea2565b600082905060005b60008214611dc0578080611da990612db2565b915050600a82611db99190612e2a565b9150611d96565b60008167ffffffffffffffff811115611ddc57611ddb6126ab565b5b6040519080825280601f01601f191660200182016040528015611e0e5781602001600182028036833780820191505090505b5090505b60008514611e9b57600182611e279190612e5b565b9150600a85611e369190612e8f565b6030611e429190612ec0565b60f81b818381518110611e5857611e57612f16565b5b60200101907effffffffffffffffffffffffffffffffffffffffffffffffffffffffffffff1916908160001a905350600a85611e949190612e2a565b9450611e12565b8093505050505b919050565b50505050565b50505050565b611ec08383836001611ec5565b505050565b600080549050600073ffffffffffffffffffffffffffffffffffffffff168573ffffffffffffffffffffffffffffffffffffffff161415611f32576040517f2e07630000000000000000000000000000000000000000000000000000000000815260040160405180910390fd5b6000841415611f6d576040517fb562e8dd00000000000000000000000000000000000000000000000000000000815260040160405180910390fd5b611f7a6000868387611ea7565b83600560008773ffffffffffffffffffffffffffffffffffffffff1673ffffffffffffffffffffffffffffffffffffffff16815260200190815260200160002060000160008282829054906101000a900467ffffffffffffffff160192506101000a81548167ffffffffffffffff021916908367ffffffffffffffff16021790555083600560008773ffffffffffffffffffffffffffffffffffffffff1673ffffffffffffffffffffffffffffffffffffffff16815260200190815260200160002060000160088282829054906101000a900467ffffffffffffffff160192506101000a81548167ffffffffffffffff021916908367ffffffffffffffff160217905550846004600083815260200190815260200160002060000160006101000a81548173ffffffffffffffffffffffffffffffffffffffff021916908373ffffffffffffffffffffffffffffffffffffffff160217905550426004600083815260200190815260200160002060000160146101000a81548167ffffffffffffffff021916908367ffffffffffffffff16021790555060008190506000858201905083801561214457506121438773ffffffffffffffffffffffffffffffffffffffff16611bbb565b5b1561220a575b818773ffffffffffffffffffffffffffffffffffffffff16600073ffffffffffffffffffffffffffffffffffffffff167fddf252ad1be2c89b69c2b068fc378daa952ba7f163c4a11628f55a4df523b3ef60405160405180910390a46121b96000888480600101955088611bde565b6121ef576040517fd1a57ed600000000000000000000000000000000000000000000000000000000815260040160405180910390fd5b8082141561214a57826000541461220557600080fd5b612276565b5b818060010192508773ffffffffffffffffffffffffffffffffffffffff16600073ffffffffffffffffffffffffffffffffffffffff167fddf252ad1be2c89b69c2b068fc378daa952ba7f163c4a11628f55a4df523b3ef60405160405180910390a48082141561220b575b81600081905550505061228c6000868387611ead565b5050505050565b6040518060600160405280600073ffffffffffffffffffffffffffffffffffffffff168152602001600067ffffffffffffffff1681526020016000151581525090565b6000604051905090565b600080fd5b600080fd5b60007fffffffff0000000000000000000000000000000000000000000000000000000082169050919050565b61231f816122ea565b811461232a57600080fd5b50565b60008135905061233c81612316565b92915050565b600060208284031215612358576123576122e0565b5b60006123668482850161232d565b91505092915050565b60008115159050919050565b6123848161236f565b82525050565b600060208201905061239f600083018461237b565b92915050565b600081519050919050565b600082825260208201905092915050565b60005b838110156123df5780820151818401526020810190506123c4565b838111156123ee576000848401525b50505050565b6000601f19601f8301169050919050565b6000612410826123a5565b61241a81856123b0565b935061242a8185602086016123c1565b612433816123f4565b840191505092915050565b600060208201905081810360008301526124588184612405565b905092915050565b6000819050919050565b61247381612460565b811461247e57600080fd5b50565b6000813590506124908161246a565b92915050565b6000602082840312156124ac576124ab6122e0565b5b60006124ba84828501612481565b91505092915050565b600073ffffffffffffffffffffffffffffffffffffffff82169050919050565b60006124ee826124c3565b9050919050565b6124fe816124e3565b82525050565b600060208201905061251960008301846124f5565b92915050565b612528816124e3565b811461253357600080fd5b50565b6000813590506125458161251f565b92915050565b60008060408385031215612562576125616122e0565b5b600061257085828601612536565b925050602061258185828601612481565b9150509250929050565b61259481612460565b82525050565b60006020820190506125af600083018461258b565b92915050565b6000806000606084860312156125ce576125cd6122e0565b5b60006125dc86828701612536565b93505060206125ed86828701612536565b92505060406125fe86828701612481565b9150509250925092565b60006020828403121561261e5761261d6122e0565b5b600061262c84828501612536565b91505092915050565b61263e8161236f565b811461264957600080fd5b50565b60008135905061265b81612635565b92915050565b60008060408385031215612678576126776122e0565b5b600061268685828601612536565b92505060206126978582860161264c565b9150509250929050565b600080fd5b600080fd5b7f4e487b7100000000000000000000000000000000000000000000000000000000600052604160045260246000fd5b6126e3826123f4565b810181811067ffffffffffffffff82111715612702576127016126ab565b5b80604052505050565b60006127156122d6565b905061272182826126da565b919050565b600067ffffffffffffffff821115612741576127406126ab565b5b61274a826123f4565b9050602081019050919050565b82818337600083830152505050565b600061277961277484612726565b61270b565b905082815260208101848484011115612795576127946126a6565b5b6127a0848285612757565b509392505050565b600082601f8301126127bd576127bc6126a1565b5b81356127cd848260208601612766565b91505092915050565b600080600080608085870312156127f0576127ef6122e0565b5b60006127fe87828801612536565b945050602061280f87828801612536565b935050604061282087828801612481565b925050606085013567ffffffffffffffff811115612841576128406122e5565b5b61284d878288016127a8565b91505092959194509250565b600080604083850312156128705761286f6122e0565b5b600061287e85828601612536565b925050602061288f85828601612536565b9150509250929050565b60006128a4826124c3565b9050919050565b6128b481612899565b81146128bf57600080fd5b50565b6000813590506128d1816128ab565b92915050565b600080604083850312156128ee576128ed6122e0565b5b60006128fc858286016128c2565b925050602061290d85828601612481565b9150509250929050565b6000806040838503121561292e5761292d6122e0565b5b600061293c85828601612481565b925050602061294d85828601612481565b9150509250929050565b7f4e487b7100000000000000000000000000000000000000000000000000000000600052602260045260246000fd5b6000600282049050600182168061299e57607f821691505b602082108114156129b2576129b1612957565b5b50919050565b7f4f776e61626c653a2063616c6c6572206973206e6f7420746865206f776e6572600082015250565b60006129ee6020836123b0565b91506129f9826129b8565b602082019050919050565b60006020820190508181036000830152612a1d816129e1565b9050919050565b7f416c7265616479204d696e742e00000000000000000000000000000000000000600082015250565b6000612a5a600d836123b0565b9150612a6582612a24565b602082019050919050565b60006020820190508181036000830152612a8981612a4d565b9050919050565b7f4661646520507269636500000000000000000000000000000000000000000000600082015250565b6000612ac6600a836123b0565b9150612ad182612a90565b602082019050919050565b60006020820190508181036000830152612af581612ab9565b9050919050565b600081905092915050565b6000612b12826123a5565b612b1c8185612afc565b9350612b2c8185602086016123c1565b80840191505092915050565b6000612b448285612b07565b9150612b508284612b07565b91508190509392505050565b7f4f776e61626c653a206e6577206f776e657220697320746865207a65726f206160008201527f6464726573730000000000000000000000000000000000000000000000000000602082015250565b6000612bb86026836123b0565b9150612bc382612b5c565b604082019050919050565b60006020820190508181036000830152612be781612bab565b9050919050565b600081905092915050565b50565b6000612c09600083612bee565b9150612c1482612bf9565b600082019050919050565b6000612c2a82612bfc565b9150819050919050565b7f4661696c656420746f2073656e64204574686572000000000000000000000000600082015250565b6000612c6a6014836123b0565b9150612c7582612c34565b602082019050919050565b60006020820190508181036000830152612c9981612c5d565b9050919050565b600081519050919050565b600082825260208201905092915050565b6000612cc782612ca0565b612cd18185612cab565b9350612ce18185602086016123c1565b612cea816123f4565b840191505092915050565b6000608082019050612d0a60008301876124f5565b612d1760208301866124f5565b612d24604083018561258b565b8181036060830152612d368184612cbc565b905095945050505050565b600081519050612d5081612316565b92915050565b600060208284031215612d6c57612d6b6122e0565b5b6000612d7a84828501612d41565b91505092915050565b7f4e487b7100000000000000000000000000000000000000000000000000000000600052601160045260246000fd5b6000612dbd82612460565b91507fffffffffffffffffffffffffffffffffffffffffffffffffffffffffffffffff821415612df057612def612d83565b5b600182019050919050565b7f4e487b7100000000000000000000000000000000000000000000000000000000600052601260045260246000fd5b6000612e3582612460565b9150612e4083612460565b925082612e5057612e4f612dfb565b5b828204905092915050565b6000612e6682612460565b9150612e7183612460565b925082821015612e8457612e83612d83565b5b828203905092915050565b6000612e9a82612460565b9150612ea583612460565b925082612eb557612eb4612dfb565b5b828206905092915050565b6000612ecb82612460565b9150612ed683612460565b9250827fffffffffffffffffffffffffffffffffffffffffffffffffffffffffffffffff03821115612f0b57612f0a612d83565b5b828201905092915050565b7f4e487b7100000000000000000000000000000000000000000000000000000000600052603260045260246000fdfea2646970667358221220f6f482699a9ed8b276d68c4d5fa8849d37cf6dc416f6077283c6a38e373e79a464736f6c634300080b0033",
  "immutableReferences": {},
  "source": "// SPDX-License-Identifier: MIT\npragma solidity ^0.8.4;\n\nimport \"@openzeppelin/contracts/access/Ownable.sol\";\nimport \"erc721a/contracts/ERC721A.sol\";\n\ncontract Couple is ERC721A, Ownable {\n  constructor() ERC721A(\"Couple\", \"CP\") {}\n\n  mapping (address => bool) public lifetime;\n  mapping (uint256 => uint256) public priceDict;\n\n  function setPrice(uint256 _type, uint256 _price) public onlyOwner {\n      priceDict[_type] = _price;\n  }\n\n  function deposit(uint256 amount) payable public {\n      require(msg.value == amount);\n  }\n\n  function mint(uint256 _type) external payable {\n    require(lifetime[msg.sender] == false, \"Already Mint.\");\n    require(priceDict[_type] != 0, \"Fade Price\");\n    deposit(priceDict[_type]);\n    _safeMint(msg.sender, 2);\n  }\n\n  function withdraw(address payable _to, uint256 amount) public onlyOwner {\n      (bool success, ) = _to.call{value: amount}(\"\");\n      require(success, \"Failed to send Ether\");\n  }\n}",
  "sourcePath": "/Users/apple/Documents/code/couple/contracts/Couple.sol",
  "compiler": {
    "name": "solc",
    "version": "0.8.11+commit.d7f03943.Emscripten.clang"
  },
  "schemaVersion": "3.4.4",
  "updatedAt": "2022-03-30T04:04:26.984Z",
  "networkType": "ethereum",
  "devdoc": {
    "kind": "dev",
    "methods": {
      "approve(address,uint256)": {
        "details": "See {IERC721-approve}."
      },
      "balanceOf(address)": {
        "details": "See {IERC721-balanceOf}."
      },
      "getApproved(uint256)": {
        "details": "See {IERC721-getApproved}."
      },
      "isApprovedForAll(address,address)": {
        "details": "See {IERC721-isApprovedForAll}."
      },
      "name()": {
        "details": "See {IERC721Metadata-name}."
      },
      "owner()": {
        "details": "Returns the address of the current owner."
      },
      "ownerOf(uint256)": {
        "details": "See {IERC721-ownerOf}."
      },
      "renounceOwnership()": {
        "details": "Leaves the contract without owner. It will not be possible to call `onlyOwner` functions anymore. Can only be called by the current owner. NOTE: Renouncing ownership will leave the contract without an owner, thereby removing any functionality that is only available to the owner."
      },
      "safeTransferFrom(address,address,uint256)": {
        "details": "See {IERC721-safeTransferFrom}."
      },
      "safeTransferFrom(address,address,uint256,bytes)": {
        "details": "See {IERC721-safeTransferFrom}."
      },
      "setApprovalForAll(address,bool)": {
        "details": "See {IERC721-setApprovalForAll}."
      },
      "supportsInterface(bytes4)": {
        "details": "See {IERC165-supportsInterface}."
      },
      "symbol()": {
        "details": "See {IERC721Metadata-symbol}."
      },
      "tokenURI(uint256)": {
        "details": "See {IERC721Metadata-tokenURI}."
      },
      "totalSupply()": {
        "details": "Burned tokens are calculated here, use _totalMinted() if you want to count just minted tokens."
      },
      "transferFrom(address,address,uint256)": {
        "details": "See {IERC721-transferFrom}."
      },
      "transferOwnership(address)": {
        "details": "Transfers ownership of the contract to a new account (`newOwner`). Can only be called by the current owner."
      }
    },
    "version": 1
  },
  "userdoc": {
    "kind": "user",
    "methods": {},
    "version": 1
  }
}